S0030000FC
S111B600CE100086E5A73C8603A7247EE8430F
S113E5007EE8433637EC0EF3E107C4E0FDE107ECA7
S113E5100EC4E01AB3E10726F63332393637183C15
S113E52018CE001920083637183C18CE0064CC07E2
S113E53054FDE107BDE503180926F31838333239D1
S113E5403686184A26FD3239C60F8620BDE5535A51
S113E5502CF83937364FC1082502CB3818CE183875
S113E56018FFE100F3E100188F3218A700333918BF
S113E5703C4FFDE109B7E10B8603B71830B71870BB
S113E58018A600183C368104272DCC1838F3E1096D
S113E590188F3218A700B6E10A4CB7E10A810826A1
S113E5A0058640B7E10A183818088149270220D0A7
S113E5B086FFB7E10B20033218381838393CA631EE
S113E5C05FE730B7E1128628B1E1122C04862D20D2
S113E5D030862BC608BDE553B6E112C628F7E10024
S113E5E0B0E10036334FCE0004028FF7E112378CCE
S113E5F000022D04863520028630C60CBDE5538604
S113E6002B01C608BDE5534F33CE006402F7E11277
S113E6108FF7E1108630B7E100FBE1004FF6E1121D
S113E620CE000A02F7E1128FF7E10F8630B7E1005E
S113E630FBE1003732C609BDE553F6E1128630B777
S113E640E100FBE1003732C60ABDE553862CC60B58
S113E650BDE5538622C60DBDE5538643C60EBDE512
S113E660533839393686DFB4E116B7E1168610BA65
S113E670E116B7E116B718C0BDE526BDE69C3239F0
S113E6803686EFB4E116B7E1168620BAE116B7E193
S113E69016B718C0BDE526BDE69C3239368630BAB9
S113E6A0E116B7E116B718C0323936BDE6F4BDE657
S113E6B0F4BDE6E4BDE6C8323936BDE6F4BDE6E4B1
S113E6C0BDE6E4BDE6C83239C608BDE6D95A26FA25
S113E6D0B6E11684F8B718C039482504BDE6F43904
S113E6E0BDE6E43936B6E1168A07B718C084FDB72B
S113E6F018C0323936B6E1168A0684FEB718C084CB
S113E700FDB718C03239B6E11684F7B718C0B7E1BF
S113E7101639B6E1168A08B718C0B7E1163936B605
S113E720E11684BFB7E116B718C0BDE6E4BDE6F450
S113E730BDE6E432BDE6C83936B6E1168A40B7E133
S113E74016B718C0BDE6E4BDE6F4BDE6E432BDE6A6
S113E750C83936B6E116847FB7E116B718C0BDE6EE
S113E760E4BDE6E4BDE6E432BDE6C83936B6E116FA
S113E7708A80B7E116B718C0BDE6E4BDE6E4BDE69D
S113E780E432BDE6C8391E00020220FA1F0002026C
S113E79020FAA60044391C00101D00101C00101D96
S113E7A00008C608BDE78624F95A26F8BDE7862581
S113E7B0FB39374FB7E137C60978E137BBE137B7E3
S113E7C0E1375A270CBDE78625034F20EC8601204C
S113E7D0E833391E00020220FA1F00020220FA392F
S113E7E0BDE7D31D002039BDE7D31C0020391C0030
S113E7F0108608BDE7E74A26FABDE7E03918A60007
S113E800B7E137860878E1372405BDE7E72003BD83
S113E810E7E04A26F018085A26E3398610A730BDE7
S113E820E540A631B7E13EA633B7E13AA634B7E1F5
S113E8303B8614A730BDE540A633B7E13CA634B708
S113E840E13D39CE10008EFFF086E5A73C8603A794
S113E85024A63984BF8A80A7391C00081D00081C1F
S113E86000088613B7E1388605B7E139BDE81BBD5A
S110E870E7EE18CEE138C606BDE7FD20EF47
S9030000FC
