S0030000FC
S111B600CE100086E5A73C8603A7247EE8F260
S113E5007EE8F254656D70203A044D657474657A42
S113E51020766F747265206365696E747572650424
S113E5203637EC0EF3E107C4E0FDE107EC0EC4E07E
S113E5301AB3E10726F63332393637183C18CE00C1
S113E5401920083637183C18CE0064CC0754FDE176
S113E55007BDE520180926F31838333239C60F866B
S113E56020BDE5685A2CF83937364FC1082502CB4F
S113E5703818CE183818FFE100F3E100188F32186C
S113E580A7003339183C4FFDE109B7E10B8603B707
S113E5901830B7187018A600183C368104272DCC03
S113E5A01838F3E109188F3218A700B6E10A4CB7FE
S113E5B0E10A810826058640B7E10A18381808815F
S113E5C049270220D086FFB7E10B20033218381800
S113E5D038393CA6315FE730B7E1128628B1E11241
S113E5E02C04862D2030862BC608BDE568B6E112C2
S113E5F0C628F7E100B0E10036334FCE0004028FA5
S113E600F7E112378C00022D04863520028630C6CD
S113E6100CBDE568862B01C608BDE5684F33CE0006
S113E6206402F7E1128FF7E1108630B7E100FBE1F5
S113E630004FF6E112CE000A02F7E1128FF7E10F64
S113E6408630B7E100FBE1003732C609BDE568F664
S113E650E1128630B7E100FBE1003732C60ABDE5BE
S113E66068862CC60BBDE5688622C60DBDE56886A6
S113E67043C60EBDE5683839393686DFB4E116B7CE
S113E680E1168610BAE116B7E116B718C03239366A
S113E69086EFB4E116B7E1168620BAE116B7E116A3
S113E6A0B718C03239368630BAE116B7E116B71852
S113E6B0C0323936BDE6FFBDE6FFBDE6EFBDE6D1AB
S113E6C0323936BDE6FFBDE6EFBDE6EFBDE6D13239
S113E6D03936C608BDE6E45A26FAB6E11684F8B718
S113E6E018C03239482504BDE6FF39BDE6EF393696
S113E6F0B6E1168A07B718C084FDB718C032393698
S113E700B6E1168A0684FEB718C084FDB718C03275
S113E71039B6E11684F7B718C0B7E11639B6E11671
S113E7208A08B718C0B7E1163936B6E11684BFB700
S113E730E116B718C0BDE6EFBDE6FFBDE6EF32BD9A
S113E740E6D13936B6E1168A40B7E116B718C0BD2E
S113E750E6EFBDE6FFBDE6EF32BDE6D13936B6E100
S113E76016847FB7E116B718C0BDE6EFBDE6EFBD6E
S113E770E6EF32BDE6D13936B6E1168A80B7E11646
S113E780B718C0BDE6EFBDE6EFBDE6EF32BDE6D19A
S113E790391E00020220FA1F00020220FAA60044D9
S113E7A04444391C00081D00081C00081D0010C644
S113E7B007BDE79124F95A26F8BDE79125FB3937BF
S113E7C04FB7E137C60978E137BBE137B7E1375ACC
S113E7D0270CBDE79125034F20EC860120E833394F
S113E7E01E00020220FA1F00020220FA39BDE7E0EF
S113E7F01D002039BDE7E01C0020391C00108608EC
S113E800BDE7F44A26FABDE7ED3918A600B7E137AB
S113E810860878E1372405BDE7F42003BDE7ED4A17
S113E82026F018095A26E339B6E1392B074848BDC2
S113E830E75D20054848BDE777B6E1382B0848482E
S113E840BDE7297EE84B4848BDE743398682B7E1F6
S113E85000B6E11AB0E100B7E13A18CEE13AB6E108
S113E8601CB0E13AB7E13981AE250586AFB7E1398D
S113E870815024058650B7E139B6E11CBBE13AB7B3
S113E880E13881AE250586AEB7E13881502405868E
S113E89050B7E13839BDE7A3BDE7BF18CEE117187B
S113E8A0A7003633C6061808BDE7BF18A7005A26C6
S113E8B0F539B6E11981602405BDE68F200C81A0ED
S113E8C02505BDE6792003BDE6A5398680B0E11BA8
S113E8D0B7E10081002A0E4848BBE10040BDE6C212
S113E8E04FBDE6B3394848B0E100BDE6B34FBDE6DD
S113E8F0C239CE10008EFFF086E5A73C8603A7241C
S113E900A63984BFA7398600A73086FFBDE72986CC
S113E910FFBDE75DBDE71DBDE539BDE711BDE68F70
S113E920BDE543BDE679BDE543BDE6A5BDE895BDBE
S111E930E84CBDE828BDE8B2BDE8CB7EE92C7A
S9030000FC
